:030000000200DF1C
:0C00DF00787FE4F6D8FD7581080200036C
:100026002331365031303030233234503230303094
:1000360054323030300D0A002331365031383030EA
:10004600233234503130303054323030300D0A00E3
:1000A800D2AFD2AC438780759850438E40538EFEB2
:1000B80053890F438920758BFA758DFAC2ABD28E9E
:0100C8002215
:090081007BFF1200C97FDC7E0543
:10008A00D3EF9400EE940040147D6E7C00ED1D7059
:0D009A00011CED4C70F7EF1F70E61E80E3B7
:0100A7002236
:0300230002001CBC
:05001C00C2988599085F
:0100210032AC
:0800EB008F993099FDC29922A2
:1000C900120056FF600C1200EB740129F9E43AFAA8
:0600D90080EEE402006F5E
:100003001200A82090077A0079261200812091F32C
:090013007A00793E12008180EAB6
:10005600BB010689828A83E0225002E722BBFE02A8
:09006600E32289828A83E49322DB
:10006F00BB010689828A83F0225002F722BBFE0170
:02007F00F3226A
:00000001FF
